{"contracts/RoleRegistry.sol":{"RoleRegistry":{"abi":[{"inputs":[],"stateMutability":"nonpayable","type":"constructor"},{"anonymous":false,"inputs":[{"indexed":true,"internalType":"address","name":"actor","type":"address"},{"indexed":true,"internalType":"bytes32","name":"role","type":"bytes32"}],"name":"RoleRegistered","type":"event"},{"anonymous":false,"inputs":[{"indexed":true,"internalType":"address","name":"actor","type":"address"}],"name":"RoleRevoked","type":"event"},{"inputs":[],"name":"ROLE_DRIVER","outputs":[{"internalType":"bytes32","name":"","type":"bytes32"}],"stateMutability":"view","type":"function"},{"inputs":[],"name":"ROLE_EXPERT","outputs":[{"internalType":"bytes32","name":"","type":"bytes32"}],"stateMutability":"view","type":"function"},{"inputs":[],"name":"ROLE_INSURER","outputs":[{"internalType":"bytes32","name":"","type":"bytes32"}],"stateMutability":"view","type":"function"},{"inputs":[{"internalType":"address","name":"actor","type":"address"}],"name":"getRole","outputs":[{"internalType":"bytes32","name":"","type":"bytes32"}],"stateMutability":"view","type":"function"},{"inputs":[{"internalType":"address","name":"actor","type":"address"},{"internalType":"bytes32","name":"role","type":"bytes32"}],"name":"hasRole","outputs":[{"internalType":"bool","name":"","type":"bool"}],"stateMutability":"view","type":"function"},{"inputs":[{"internalType":"address","name":"actor","type":"address"}],"name":"isActive","outputs":[{"internalType":"bool","name":"","type":"bool"}],"stateMutability":"view","type":"function"},{"inputs":[],"name":"owner","outputs":[{"internalType":"address","name":"","type":"address"}],"stateMutability":"view","type":"function"},{"inputs":[{"internalType":"bytes32","name":"role","type":"bytes32"}],"name":"register","outputs":[],"stateMutability":"nonpayable","type":"function"},{"inputs":[{"internalType":"address","name":"actor","type":"address"}],"name":"revokeRole","outputs":[],"stateMutability":"nonpayable","type":"function"}],"evm":{"bytecode":{"linkReferences":{},"object":"608060405234801561001057600080fd5b50600080546001600160a01b031916331790556104ff806100326000396000f3fe608060405234801561001057600080fd5b50600436106100935760003560e01c80639f8a13d7116100665780639f8a13d71461013b578063ac4ab3fb14610177578063c968db0d1461018a578063e1fa8e84146101b1578063ee0042ad146101c457600080fd5b80632aa88d5d1461009857806344276733146100d257806380e52e3f146100fb5780638da5cb5b14610110575b600080fd5b6100bf7fd0eaac78539475183dbf59af0b1adaf2efb338211cda5ed79cbe75faffe19fd881565b6040519081526020015b60405180910390f35b6100bf6100e036600461046b565b6001600160a01b031660009081526001602052604090205490565b61010e61010936600461046b565b6101eb565b005b600054610123906001600160a01b031681565b6040516001600160a01b0390911681526020016100c9565b61016761014936600461046b565b6001600160a01b031660009081526002602052604090205460ff1690565b60405190151581526020016100c9565b610167610185366004610486565b610293565b6100bf7ff098b7742e998f92a3c749f35e64ef555edcecec4b78a00c532a4f385915955b81565b61010e6101bf3660046104b0565b6102d9565b6100bf7fb51fa2088cc18142462c9eb244015324b2e5ec1ec2d468076354b8d6038f90f481565b6000546001600160a01b0316331461024a5760405162461bcd60e51b815260206004820152601760248201527f526f6c6552656769737472793a206e6f74206f776e657200000000000000000060448201526064015b60405180910390fd5b6001600160a01b038116600081815260026020526040808220805460ff19169055517f6107a4a5447a4208ba14e3ec240bccf0a93828124ccf501af04601031070b1839190a250565b6001600160a01b03821660009081526002602052604081205460ff1680156102d257506001600160a01b03831660009081526001602052604090205482145b9392505050565b7fb51fa2088cc18142462c9eb244015324b2e5ec1ec2d468076354b8d6038f90f481148061032657507fd0eaac78539475183dbf59af0b1adaf2efb338211cda5ed79cbe75faffe19fd881145b8061035057507ff098b7742e998f92a3c749f35e64ef555edcecec4b78a00c532a4f385915955b81145b61039c5760405162461bcd60e51b815260206004820152601a60248201527f526f6c6552656769737472793a20726f6c6520696e636f6e6e750000000000006044820152606401610241565b3360009081526002602052604090205460ff16156103fc5760405162461bcd60e51b815260206004820152601d60248201527f526f6c6552656769737472793a2064656a6120656e72656769737472650000006044820152606401610241565b3360008181526001602081815260408084208690556002909152808320805460ff1916909217909155518392917f4dcdd48d02251367adc8f0979edf20a39ac12b840745566faf4a3b62aa38b95191a350565b80356001600160a01b038116811461046657600080fd5b919050565b60006020828403121561047d57600080fd5b6102d28261044f565b6000806040838503121561049957600080fd5b6104a28361044f565b946020939093013593505050565b6000602082840312156104c257600080fd5b503591905056fea26469706673582212203d4ec792b6fe9914794f56d357ec1adae12fc0921b14f5412dcbff0c86d8cd8364736f6c63430008140033","opcodes":"PUSH1 0x80 PUSH1 0x40 MSTORE CALLVALUE DUP1 ISZERO PUSH2 0x10 JUMPI PUSH1 0x0 DUP1 REVERT JUMPDEST POP PUSH1 0x0 DUP1 SLOAD PUSH1 0x1 PUSH1 0x1 PUSH1 0xA0 SHL SUB NOT AND CALLER OR SWAP1 SSTORE PUSH2 0x4FF DUP1 PUSH2 0x32 PUSH1 0x0 CODECOPY PUSH1 0x0 RETURN INVALID PUSH1 0x80 PUSH1 0x40 MSTORE CALLVALUE DUP1 ISZERO PUSH2 0x10 JUMPI PUSH1 0x0 DUP1 REVERT JUMPDEST POP PUSH1 0x4 CALLDATASIZE LT PUSH2 0x93 JUMPI PUSH1 0x0 CALLDATALOAD PUSH1 0xE0 SHR DUP1 PUSH4 0x9F8A13D7 GT PUSH2 0x66 JUMPI DUP1 PUSH4 0x9F8A13D7 EQ PUSH2 0x13B JUMPI DUP1 PUSH4 0xAC4AB3FB EQ PUSH2 0x177 JUMPI DUP1 PUSH4 0xC968DB0D EQ PUSH2 0x18A JUMPI DUP1 PUSH4 0xE1FA8E84 EQ PUSH2 0x1B1 JUMPI DUP1 PUSH4 0xEE0042AD EQ PUSH2 0x1C4 JUMPI PUSH1 0x0 DUP1 REVERT JUMPDEST DUP1 PUSH4 0x2AA88D5D EQ PUSH2 0x98 JUMPI DUP1 PUSH4 0x44276733 EQ PUSH2 0xD2 JUMPI DUP1 PUSH4 0x80E52E3F EQ PUSH2 0xFB JUMPI DUP1 PUSH4 0x8DA5CB5B EQ PUSH2 0x110 JUMPI JUMPDEST PUSH1 0x0 DUP1 REVERT JUMPDEST PUSH2 0xBF PUSH32 0xD0EAAC78539475183DBF59AF0B1ADAF2EFB338211CDA5ED79CBE75FAFFE19FD8 DUP2 JUMP JUMPDEST PUSH1 0x40 MLOAD SWAP1 DUP2 MSTORE PUSH1 0x20 ADD JUMPDEST PUSH1 0x40 MLOAD DUP1 SWAP2 SUB SWAP1 RETURN JUMPDEST PUSH2 0xBF PUSH2 0xE0 CALLDATASIZE PUSH1 0x4 PUSH2 0x46B JUMP JUMPDEST PUSH1 0x1 PUSH1 0x1 PUSH1 0xA0 SHL SUB AND PUSH1 0x0 SWAP1 DUP2 MSTORE PUSH1 0x1 PUSH1 0x20 MSTORE PUSH1 0x40 SWAP1 KECCAK256 SLOAD SWAP1 JUMP JUMPDEST PUSH2 0x10E PUSH2 0x109 CALLDATASIZE PUSH1 0x4 PUSH2 0x46B JUMP JUMPDEST PUSH2 0x1EB JUMP JUMPDEST STOP JUMPDEST PUSH1 0x0 SLOAD PUSH2 0x123 SWAP1 PUSH1 0x1 PUSH1 0x1 PUSH1 0xA0 SHL SUB AND DUP2 JUMP JUMPDEST PUSH1 0x40 MLOAD PUSH1 0x1 PUSH1 0x1 PUSH1 0xA0 SHL SUB SWAP1 SWAP2 AND DUP2 MSTORE PUSH1 0x20 ADD PUSH2 0xC9 JUMP JUMPDEST PUSH2 0x167 PUSH2 0x149 CALLDATASIZE PUSH1 0x4 PUSH2 0x46B JUMP JUMPDEST PUSH1 0x1 PUSH1 0x1 PUSH1 0xA0 SHL SUB AND PUSH1 0x0 SWAP1 DUP2 MSTORE PUSH1 0x2 PUSH1 0x20 MSTORE PUSH1 0x40 SWAP1 KECCAK256 SLOAD PUSH1 0xFF AND SWAP1 JUMP JUMPDEST PUSH1 0x40 MLOAD SWAP1 ISZERO ISZERO DUP2 MSTORE PUSH1 0x20 ADD PUSH2 0xC9 JUMP JUMPDEST PUSH2 0x167 PUSH2 0x185 CALLDATASIZE PUSH1 0x4 PUSH2 0x486 JUMP JUMPDEST PUSH2 0x293 JUMP JUMPDEST PUSH2 0xBF PUSH32 0xF098B7742E998F92A3C749F35E64EF555EDCECEC4B78A00C532A4F385915955B DUP2 JUMP JUMPDEST PUSH2 0x10E PUSH2 0x1BF CALLDATASIZE PUSH1 0x4 PUSH2 0x4B0 JUMP JUMPDEST PUSH2 0x2D9 JUMP JUMPDEST PUSH2 0xBF PUSH32 0xB51FA2088CC18142462C9EB244015324B2E5EC1EC2D468076354B8D6038F90F4 DUP2 JUMP JUMPDEST PUSH1 0x0 SLOAD PUSH1 0x1 PUSH1 0x1 PUSH1 0xA0 SHL SUB AND CALLER EQ PUSH2 0x24A JUMPI PUSH1 0x40 MLOAD PUSH3 0x461BCD PUSH1 0xE5 SHL DUP2 MSTORE PUSH1 0x20 PUSH1 0x4 DUP3 ADD MSTORE PUSH1 0x17 PUSH1 0x24 DUP3 ADD MSTORE PUSH32 0x526F6C6552656769737472793A206E6F74206F776E6572000000000000000000 PUSH1 0x44 DUP3 ADD MSTORE PUSH1 0x64 ADD JUMPDEST PUSH1 0x40 MLOAD DUP1 SWAP2 SUB SWAP1 REVERT JUMPDEST PUSH1 0x1 PUSH1 0x1 PUSH1 0xA0 SHL SUB DUP2 AND PUSH1 0x0 DUP2 DUP2 MSTORE PUSH1 0x2 PUSH1 0x20 MSTORE PUSH1 0x40 DUP1 DUP3 KECCAK256 DUP1 SLOAD PUSH1 0xFF NOT AND SWAP1 SSTORE MLOAD PUSH32 0x6107A4A5447A4208BA14E3EC240BCCF0A93828124CCF501AF04601031070B183 SWAP2 SWAP1 LOG2 POP JUMP JUMPDEST PUSH1 0x1 PUSH1 0x1 PUSH1 0xA0 SHL SUB DUP3 AND PUSH1 0x0 SWAP1 DUP2 MSTORE PUSH1 0x2 PUSH1 0x20 MSTORE PUSH1 0x40 DUP2 KECCAK256 SLOAD PUSH1 0xFF AND DUP1 ISZERO PUSH2 0x2D2 JUMPI POP PUSH1 0x1 PUSH1 0x1 PUSH1 0xA0 SHL SUB DUP4 AND PUSH1 0x0 SWAP1 DUP2 MSTORE PUSH1 0x1 PUSH1 0x20 MSTORE PUSH1 0x40 SWAP1 KECCAK256 SLOAD DUP3 EQ JUMPDEST SWAP4 SWAP3 POP POP POP JUMP JUMPDEST PUSH32 0xB51FA2088CC18142462C9EB244015324B2E5EC1EC2D468076354B8D6038F90F4 DUP2 EQ DUP1 PUSH2 0x326 JUMPI POP PUSH32 0xD0EAAC78539475183DBF59AF0B1ADAF2EFB338211CDA5ED79CBE75FAFFE19FD8 DUP2 EQ JUMPDEST DUP1 PUSH2 0x350 JUMPI POP PUSH32 0xF098B7742E998F92A3C749F35E64EF555EDCECEC4B78A00C532A4F385915955B DUP2 EQ JUMPDEST PUSH2 0x39C JUMPI PUSH1 0x40 MLOAD PUSH3 0x461BCD PUSH1 0xE5 SHL DUP2 MSTORE PUSH1 0x20 PUSH1 0x4 DUP3 ADD MSTORE PUSH1 0x1A PUSH1 0x24 DUP3 ADD MSTORE PUSH32 0x526F6C6552656769737472793A20726F6C6520696E636F6E6E75000000000000 PUSH1 0x44 DUP3 ADD MSTORE PUSH1 0x64 ADD PUSH2 0x241 JUMP JUMPDEST CALLER PUSH1 0x0 SWAP1 DUP2 MSTORE PUSH1 0x2 PUSH1 0x20 MSTORE PUSH1 0x40 SWAP1 KECCAK256 SLOAD PUSH1 0xFF AND ISZERO PUSH2 0x3FC JUMPI PUSH1 0x40 MLOAD PUSH3 0x461BCD PUSH1 0xE5 SHL DUP2 MSTORE PUSH1 0x20 PUSH1 0x4 DUP3 ADD MSTORE PUSH1 0x1D PUSH1 0x24 DUP3 ADD MSTORE PUSH32 0x526F6C6552656769737472793A2064656A6120656E7265676973747265000000 PUSH1 0x44 DUP3 ADD MSTORE PUSH1 0x64 ADD PUSH2 0x241 JUMP JUMPDEST CALLER PUSH1 0x0 DUP2 DUP2 MSTORE PUSH1 0x1 PUSH1 0x20 DUP2 DUP2 MSTORE PUSH1 0x40 DUP1 DUP5 KECCAK256 DUP7 SWAP1 SSTORE PUSH1 0x2 SWAP1 SWAP2 MSTORE DUP1 DUP4 KECCAK256 DUP1 SLOAD PUSH1 0xFF NOT AND SWAP1 SWAP3 OR SWAP1 SWAP2 SSTORE MLOAD DUP4 SWAP3 SWAP2 PUSH32 0x4DCDD48D02251367ADC8F0979EDF20A39AC12B840745566FAF4A3B62AA38B951 SWAP2 LOG3 POP JUMP JUMPDEST DUP1 CALLDATALOAD PUSH1 0x1 PUSH1 0x1 PUSH1 0xA0 SHL SUB DUP2 AND DUP2 EQ PUSH2 0x466 JUMPI PUSH1 0x0 DUP1 REVERT JUMPDEST SWAP2 SWAP1 POP JUMP JUMPDEST PUSH1 0x0 PUSH1 0x20 DUP3 DUP5 SUB SLT ISZERO PUSH2 0x47D JUMPI PUSH1 0x0 DUP1 REVERT JUMPDEST PUSH2 0x2D2 DUP3 PUSH2 0x44F JUMP JUMPDEST PUSH1 0x0 DUP1 PUSH1 0x40 DUP4 DUP6 SUB SLT ISZERO PUSH2 0x499 JUMPI PUSH1 0x0 DUP1 REVERT JUMPDEST PUSH2 0x4A2 DUP4 PUSH2 0x44F JUMP JUMPDEST SWAP5 PUSH1 0x20 SWAP4 SWAP1 SWAP4 ADD CALLDATALOAD SWAP4 POP POP POP JUMP JUMPDEST PUSH1 0x0 PUSH1 0x20 DUP3 DUP5 SUB SLT ISZERO PUSH2 0x4C2 JUMPI PUSH1 0x0 DUP1 REVERT JUMPDEST POP CALLDATALOAD SWAP2 SWAP1 POP JUMP INVALID LOG2 PUSH5 0x6970667358 0x22 SLT KECCAK256 RETURNDATASIZE 0x4E 0xC7 SWAP3 0xB6 INVALID SWAP10 EQ PUSH26 0x4F56D357EC1ADAE12FC0921B14F5412DCBFF0C86D8CD8364736F PUSH13 0x63430008140033000000000000 "},"methodIdentifiers":{"ROLE_DRIVER()":"ee0042ad","ROLE_EXPERT()":"2aa88d5d","ROLE_INSURER()":"c968db0d","getRole(address)":"44276733","hasRole(address,bytes32)":"ac4ab3fb","isActive(address)":"9f8a13d7","owner()":"8da5cb5b","register(bytes32)":"e1fa8e84","revokeRole(address)":"80e52e3f"}}}}}