{
  "_format": "hh-sol-artifact-1",
  "contractName": "AccidentStorage",
  "sourceName": "contracts/AccidentStorage.sol",
  "abi": [
    {
      "inputs": [],
      "stateMutability": "nonpayable",
      "type": "constructor"
    },
    {
      "anonymous": false,
      "inputs": [
        {
          "indexed": true,
          "internalType": "address",
          "name": "oldController",
          "type": "address"
        },
        {
          "indexed": true,
          "internalType": "address",
          "name": "newController",
          "type": "address"
        }
      ],
      "name": "ControllerUpdated",
      "type": "event"
    },
    {
      "inputs": [],
      "name": "accidentCount",
      "outputs": [
        {
          "internalType": "uint256",
          "name": "",
          "type": "uint256"
        }
      ],
      "stateMutability": "view",
      "type": "function"
    },
    {
      "inputs": [],
      "name": "authorizedController",
      "outputs": [
        {
          "internalType": "address",
          "name": "",
          "type": "address"
        }
      ],
      "stateMutability": "view",
      "type": "function"
    },
    {
      "inputs": [
        {
          "internalType": "uint256",
          "name": "id",
          "type": "uint256"
        }
      ],
      "name": "closeAccident",
      "outputs": [],
      "stateMutability": "nonpayable",
      "type": "function"
    },
    {
      "inputs": [
        {
          "internalType": "address",
          "name": "driver",
          "type": "address"
        },
        {
          "internalType": "string",
          "name": "evidenceHash",
          "type": "string"
        },
        {
          "internalType": "string",
          "name": "evidenceCID",
          "type": "string"
        },
        {
          "internalType": "string",
          "name": "location",
          "type": "string"
        }
      ],
      "name": "createAccident",
      "outputs": [
        {
          "internalType": "uint256",
          "name": "",
          "type": "uint256"
        }
      ],
      "stateMutability": "nonpayable",
      "type": "function"
    },
    {
      "inputs": [
        {
          "internalType": "uint256",
          "name": "id",
          "type": "uint256"
        }
      ],
      "name": "exists",
      "outputs": [
        {
          "internalType": "bool",
          "name": "",
          "type": "bool"
        }
      ],
      "stateMutability": "view",
      "type": "function"
    },
    {
      "inputs": [
        {
          "internalType": "uint256",
          "name": "id",
          "type": "uint256"
        }
      ],
      "name": "getAccident",
      "outputs": [
        {
          "components": [
            {
              "internalType": "uint256",
              "name": "id",
              "type": "uint256"
            },
            {
              "internalType": "address",
              "name": "driver",
              "type": "address"
            },
            {
              "internalType": "address",
              "name": "expert",
              "type": "address"
            },
            {
              "internalType": "address",
              "name": "insurer",
              "type": "address"
            },
            {
              "internalType": "string",
              "name": "evidenceHash",
              "type": "string"
            },
            {
              "internalType": "string",
              "name": "evidenceCID",
              "type": "string"
            },
            {
              "internalType": "string",
              "name": "reportHash",
              "type": "string"
            },
            {
              "internalType": "string",
              "name": "reportCID",
              "type": "string"
            },
            {
              "internalType": "string",
              "name": "location",
              "type": "string"
            },
            {
              "internalType": "uint256",
              "name": "timestamp",
              "type": "uint256"
            },
            {
              "internalType": "enum AccidentStorage.Status",
              "name": "status",
              "type": "uint8"
            },
            {
              "internalType": "bool",
              "name": "driverSigned",
              "type": "bool"
            },
            {
              "internalType": "bool",
              "name": "expertSigned",
              "type": "bool"
            }
          ],
          "internalType": "struct AccidentStorage.Accident",
          "name": "",
          "type": "tuple"
        }
      ],
      "stateMutability": "view",
      "type": "function"
    },
    {
      "inputs": [],
      "name": "getAccidentCount",
      "outputs": [
        {
          "internalType": "uint256",
          "name": "",
          "type": "uint256"
        }
      ],
      "stateMutability": "view",
      "type": "function"
    },
    {
      "inputs": [
        {
          "internalType": "uint256",
          "name": "id",
          "type": "uint256"
        }
      ],
      "name": "getStatus",
      "outputs": [
        {
          "internalType": "enum AccidentStorage.Status",
          "name": "",
          "type": "uint8"
        }
      ],
      "stateMutability": "view",
      "type": "function"
    },
    {
      "inputs": [],
      "name": "owner",
      "outputs": [
        {
          "internalType": "address",
          "name": "",
          "type": "address"
        }
      ],
      "stateMutability": "view",
      "type": "function"
    },
    {
      "inputs": [
        {
          "internalType": "uint256",
          "name": "id",
          "type": "uint256"
        },
        {
          "internalType": "address",
          "name": "insurer",
          "type": "address"
        }
      ],
      "name": "rejectAccident",
      "outputs": [],
      "stateMutability": "nonpayable",
      "type": "function"
    },
    {
      "inputs": [
        {
          "internalType": "address",
          "name": "controller",
          "type": "address"
        }
      ],
      "name": "setController",
      "outputs": [],
      "stateMutability": "nonpayable",
      "type": "function"
    },
    {
      "inputs": [
        {
          "internalType": "uint256",
          "name": "id",
          "type": "uint256"
        },
        {
          "internalType": "address",
          "name": "expert",
          "type": "address"
        }
      ],
      "name": "setExpertAndStatus",
      "outputs": [],
      "stateMutability": "nonpayable",
      "type": "function"
    },
    {
      "inputs": [
        {
          "internalType": "uint256",
          "name": "id",
          "type": "uint256"
        },
        {
          "internalType": "string",
          "name": "reportHash",
          "type": "string"
        },
        {
          "internalType": "string",
          "name": "reportCID",
          "type": "string"
        }
      ],
      "name": "submitReport",
      "outputs": [],
      "stateMutability": "nonpayable",
      "type": "function"
    },
    {
      "inputs": [
        {
          "internalType": "uint256",
          "name": "id",
          "type": "uint256"
        },
        {
          "internalType": "address",
          "name": "insurer",
          "type": "address"
        }
      ],
      "name": "validateAccident",
      "outputs": [],
      "stateMutability": "nonpayable",
      "type": "function"
    }
  ],
  "bytecode": "0x608060405234801561001057600080fd5b50600080546001600160a01b0319163317905561130d806100326000396000f3fe608060405234801561001057600080fd5b50600436106100ea5760003560e01c80638da5cb5b1161008c5780639f0d3055116100665780639f0d305514610217578063a58704c514610220578063b489e07514610233578063b880bbf81461023b57600080fd5b80638da5cb5b146101de57806392eefe9b146101f15780639a3ce8331461020457600080fd5b80635c622a0e116100c85780635c622a0e14610162578063679ad41f146101955780637829481e146101aa5780638d550279146101cb57600080fd5b80634f558e79146100ef57806357b2120f146101175780635c1fad0814610142575b600080fd5b6101026100fd366004610c81565b61024e565b60405190151581526020015b60405180910390f35b60015461012a906001600160a01b031681565b6040516001600160a01b03909116815260200161010e565b610155610150366004610c81565b610267565b60405161010e9190610d18565b610188610170366004610c81565b6000908152600360205260409020600a015460ff1690565b60405161010e9190610e4d565b6101a86101a3366004610e77565b610604565b005b6101bd6101b8366004610eec565b61067e565b60405190815260200161010e565b6101a86101d9366004610e77565b61093e565b60005461012a906001600160a01b031681565b6101a86101ff366004610f97565b6109a6565b6101a8610212366004610e77565b610ab2565b6101bd60025481565b6101a861022e366004610fb9565b610b1b565b6002546101bd565b6101a8610249366004610c81565b610ba5565b6000808211801561026157506002548211155b92915050565b61026f610bed565b60008281526003602081815260409283902083516101a0810185528154815260018201546001600160a01b03908116938201939093526002820154831694810194909452918201541660608301526004810180546080840191906102d290611033565b80601f01602080910402602001604051908101604052809291908181526020018280546102fe90611033565b801561034b5780601f106103205761010080835404028352916020019161034b565b820191906000526020600020905b81548152906001019060200180831161032e57829003601f168201915b5050505050815260200160058201805461036490611033565b80601f016020809104026020016040519081016040528092919081815260200182805461039090611033565b80156103dd5780601f106103b2576101008083540402835291602001916103dd565b820191906000526020600020905b8154815290600101906020018083116103c057829003601f168201915b505050505081526020016006820180546103f690611033565b80601f016020809104026020016040519081016040528092919081815260200182805461042290611033565b801561046f5780601f106104445761010080835404028352916020019161046f565b820191906000526020600020905b81548152906001019060200180831161045257829003601f168201915b5050505050815260200160078201805461048890611033565b80601f01602080910402602001604051908101604052809291908181526020018280546104b490611033565b80156105015780601f106104d657610100808354040283529160200191610501565b820191906000526020600020905b8154815290600101906020018083116104e457829003601f168201915b5050505050815260200160088201805461051a90611033565b80601f016020809104026020016040519081016040528092919081815260200182805461054690611033565b80156105935780601f1061056857610100808354040283529160200191610593565b820191906000526020600020905b81548152906001019060200180831161057657829003601f168201915b505050918352505060098201546020820152600a82015460409091019060ff1660058111156105c4576105c4610ce0565b60058111156105d5576105d5610ce0565b8152600a919091015460ff61010082048116151560208401526201000090910416151560409091015292915050565b6001546001600160a01b031633146106375760405162461bcd60e51b815260040161062e9061106d565b60405180910390fd5b600082815260036020819052604090912090810180546001600160a01b0319166001600160a01b038416179055600a0180546004919060ff19166001835b02179055505050565b6001546000906001600160a01b031633146106ab5760405162461bcd60e51b815260040161062e9061106d565b600280549060006106bb836110ca565b9190505550604051806101a001604052806002548152602001896001600160a01b0316815260200160006001600160a01b0316815260200160006001600160a01b0316815260200188888080601f016020809104026020016040519081016040528093929190818152602001838380828437600092019190915250505090825250604080516020601f8901819004810282018101909252878152918101919088908890819084018382808284376000920182905250938552505060408051602081810183528482528086019190915281518082018352938452818501939093528051601f880184900484028101840190915286815260609093019291879150869081908401838280828437600092018290525093855250504260208401525060409091019081526001602080830182905260006040938401819052600280548252600380845291859020865181559286015193830180546001600160a01b03199081166001600160a01b03968716179091559486015190830180548616918516919091179055606085015190820180549094169216919091179091556080820151600482019061086b9082611156565b5060a082015160058201906108809082611156565b5060c082015160068201906108959082611156565b5060e082015160078201906108aa9082611156565b5061010082015160088201906108c09082611156565b506101208201516009820155610140820151600a8201805460ff191660018360058111156108f0576108f0610ce0565b0217905550610160820151600a9091018054610180909301511515620100000262ff000019921515610100029290921662ffff00199093169290921717905550600254979650505050505050565b6001546001600160a01b031633146109685760405162461bcd60e51b815260040161062e9061106d565b600082815260036020819052604090912080820180546001600160a01b0319166001600160a01b038516179055600a01805460ff1916600183610675565b6000546001600160a01b03163314610a005760405162461bcd60e51b815260206004820152601a60248201527f4163636964656e7453746f726167653a206e6f74206f776e6572000000000000604482015260640161062e565b6001600160a01b038116610a565760405162461bcd60e51b815260206004820152601d60248201527f4163636964656e7453746f726167653a207a65726f2061646472657373000000604482015260640161062e565b6001546040516001600160a01b038084169216907f1c87e2bbc4e5fa5d7f6f8c44d66cb241dff224b8602eb5435ca2076d2a5c6fc290600090a3600180546001600160a01b0319166001600160a01b0392909216919091179055565b6001546001600160a01b03163314610adc5760405162461bcd60e51b815260040161062e9061106d565b60008281526003602052604090206002810180546001600160a01b0319166001600160a01b038416179055600a0180546001919060ff19168280610675565b6001546001600160a01b03163314610b455760405162461bcd60e51b815260040161062e9061106d565b6000858152600360205260409020600601610b61848683611216565b506000858152600360205260409020600701610b7e828483611216565b50505060009283525050600360205260409020600a01805462ff00ff191662010002179055565b6001546001600160a01b03163314610bcf5760405162461bcd60e51b815260040161062e9061106d565b6000908152600360205260409020600a01805460ff19166005179055565b604051806101a001604052806000815260200160006001600160a01b0316815260200160006001600160a01b0316815260200160006001600160a01b0316815260200160608152602001606081526020016060815260200160608152602001606081526020016000815260200160006005811115610c6d57610c6d610ce0565b815260006020820181905260409091015290565b600060208284031215610c9357600080fd5b5035919050565b6000815180845260005b81811015610cc057602081850181015186830182015201610ca4565b506000602082860101526020601f19601f83011685010191505092915050565b634e487b7160e01b600052602160045260246000fd5b60068110610d1457634e487b7160e01b600052602160045260246000fd5b9052565b602081528151602082015260006020830151610d3f60408401826001600160a01b03169052565b5060408301516001600160a01b03811660608401525060608301516001600160a01b03811660808401525060808301516101a08060a0850152610d866101c0850183610c9a565b915060a0850151601f19808685030160c0870152610da48483610c9a565b935060c08701519150808685030160e0870152610dc18483610c9a565b935060e08701519150610100818786030181880152610de08584610c9a565b945080880151925050610120818786030181880152610dff8584610c9a565b908801516101408881019190915288015190945091506101609050610e2681870183610cf6565b8601519050610180610e3b8682018315159052565b90950151151593019290925250919050565b602081016102618284610cf6565b80356001600160a01b0381168114610e7257600080fd5b919050565b60008060408385031215610e8a57600080fd5b82359150610e9a60208401610e5b565b90509250929050565b60008083601f840112610eb557600080fd5b50813567ffffffffffffffff811115610ecd57600080fd5b602083019150836020828501011115610ee557600080fd5b9250929050565b60008060008060008060006080888a031215610f0757600080fd5b610f1088610e5b565b9650602088013567ffffffffffffffff80821115610f2d57600080fd5b610f398b838c01610ea3565b909850965060408a0135915080821115610f5257600080fd5b610f5e8b838c01610ea3565b909650945060608a0135915080821115610f7757600080fd5b50610f848a828b01610ea3565b989b979a50959850939692959293505050565b600060208284031215610fa957600080fd5b610fb282610e5b565b9392505050565b600080600080600060608688031215610fd157600080fd5b85359450602086013567ffffffffffffffff80821115610ff057600080fd5b610ffc89838a01610ea3565b9096509450604088013591508082111561101557600080fd5b5061102288828901610ea3565b969995985093965092949392505050565b600181811c9082168061104757607f821691505b60208210810361106757634e487b7160e01b600052602260045260246000fd5b50919050565b60208082526038908201527f4163636964656e7453746f726167653a2063616c6c6572206973206e6f74207460408201527f686520617574686f72697a656420636f6e74726f6c6c65720000000000000000606082015260800190565b6000600182016110ea57634e487b7160e01b600052601160045260246000fd5b5060010190565b634e487b7160e01b600052604160045260246000fd5b601f82111561115157600081815260208120601f850160051c8101602086101561112e5750805b601f850160051c820191505b8181101561114d5782815560010161113a565b5050505b505050565b815167ffffffffffffffff811115611170576111706110f1565b6111848161117e8454611033565b84611107565b602080601f8311600181146111b957600084156111a15750858301515b600019600386901b1c1916600185901b17855561114d565b600085815260208120601f198616915b828110156111e8578886015182559484019460019091019084016111c9565b50858210156112065787850151600019600388901b60f8161c191681555b5050505050600190811b01905550565b67ffffffffffffffff83111561122e5761122e6110f1565b6112428361123c8354611033565b83611107565b6000601f841160018114611276576000851561125e5750838201355b600019600387901b1c1916600186901b1783556112d0565b600083815260209020601f19861690835b828110156112a75786850135825560209485019460019092019101611287565b50868210156112c45760001960f88860031b161c19848701351681555b505060018560011b0183555b505050505056fea2646970667358221220bea83fc861b7c08ceb9efca62cadc691a406b7ee6ac0bc12c37174b50a94817064736f6c63430008140033",
  "linkReferences": {},
  "deployedLinkReferences": {}
}