{
  "_format": "hh-sol-artifact-1",
  "contractName": "RoleRegistry",
  "sourceName": "contracts/RoleRegistry.sol",
  "abi": [
    {
      "inputs": [],
      "stateMutability": "nonpayable",
      "type": "constructor"
    },
    {
      "anonymous": false,
      "inputs": [
        {
          "indexed": true,
          "internalType": "address",
          "name": "actor",
          "type": "address"
        },
        {
          "indexed": true,
          "internalType": "bytes32",
          "name": "role",
          "type": "bytes32"
        }
      ],
      "name": "RoleRegistered",
      "type": "event"
    },
    {
      "anonymous": false,
      "inputs": [
        {
          "indexed": true,
          "internalType": "address",
          "name": "actor",
          "type": "address"
        }
      ],
      "name": "RoleRevoked",
      "type": "event"
    },
    {
      "inputs": [],
      "name": "ROLE_DRIVER",
      "outputs": [
        {
          "internalType": "bytes32",
          "name": "",
          "type": "bytes32"
        }
      ],
      "stateMutability": "view",
      "type": "function"
    },
    {
      "inputs": [],
      "name": "ROLE_EXPERT",
      "outputs": [
        {
          "internalType": "bytes32",
          "name": "",
          "type": "bytes32"
        }
      ],
      "stateMutability": "view",
      "type": "function"
    },
    {
      "inputs": [],
      "name": "ROLE_INSURER",
      "outputs": [
        {
          "internalType": "bytes32",
          "name": "",
          "type": "bytes32"
        }
      ],
      "stateMutability": "view",
      "type": "function"
    },
    {
      "inputs": [
        {
          "internalType": "address",
          "name": "actor",
          "type": "address"
        }
      ],
      "name": "getRole",
      "outputs": [
        {
          "internalType": "bytes32",
          "name": "",
          "type": "bytes32"
        }
      ],
      "stateMutability": "view",
      "type": "function"
    },
    {
      "inputs": [
        {
          "internalType": "address",
          "name": "actor",
          "type": "address"
        },
        {
          "internalType": "bytes32",
          "name": "role",
          "type": "bytes32"
        }
      ],
      "name": "hasRole",
      "outputs": [
        {
          "internalType": "bool",
          "name": "",
          "type": "bool"
        }
      ],
      "stateMutability": "view",
      "type": "function"
    },
    {
      "inputs": [
        {
          "internalType": "address",
          "name": "actor",
          "type": "address"
        }
      ],
      "name": "isActive",
      "outputs": [
        {
          "internalType": "bool",
          "name": "",
          "type": "bool"
        }
      ],
      "stateMutability": "view",
      "type": "function"
    },
    {
      "inputs": [],
      "name": "owner",
      "outputs": [
        {
          "internalType": "address",
          "name": "",
          "type": "address"
        }
      ],
      "stateMutability": "view",
      "type": "function"
    },
    {
      "inputs": [
        {
          "internalType": "bytes32",
          "name": "role",
          "type": "bytes32"
        }
      ],
      "name": "register",
      "outputs": [],
      "stateMutability": "nonpayable",
      "type": "function"
    },
    {
      "inputs": [
        {
          "internalType": "address",
          "name": "actor",
          "type": "address"
        }
      ],
      "name": "revokeRole",
      "outputs": [],
      "stateMutability": "nonpayable",
      "type": "function"
    }
  ],
  "bytecode": "0x608060405234801561001057600080fd5b50600080546001600160a01b031916331790556104ff806100326000396000f3fe608060405234801561001057600080fd5b50600436106100935760003560e01c80639f8a13d7116100665780639f8a13d71461013b578063ac4ab3fb14610177578063c968db0d1461018a578063e1fa8e84146101b1578063ee0042ad146101c457600080fd5b80632aa88d5d1461009857806344276733146100d257806380e52e3f146100fb5780638da5cb5b14610110575b600080fd5b6100bf7fd0eaac78539475183dbf59af0b1adaf2efb338211cda5ed79cbe75faffe19fd881565b6040519081526020015b60405180910390f35b6100bf6100e036600461046b565b6001600160a01b031660009081526001602052604090205490565b61010e61010936600461046b565b6101eb565b005b600054610123906001600160a01b031681565b6040516001600160a01b0390911681526020016100c9565b61016761014936600461046b565b6001600160a01b031660009081526002602052604090205460ff1690565b60405190151581526020016100c9565b610167610185366004610486565b610293565b6100bf7ff098b7742e998f92a3c749f35e64ef555edcecec4b78a00c532a4f385915955b81565b61010e6101bf3660046104b0565b6102d9565b6100bf7fb51fa2088cc18142462c9eb244015324b2e5ec1ec2d468076354b8d6038f90f481565b6000546001600160a01b0316331461024a5760405162461bcd60e51b815260206004820152601760248201527f526f6c6552656769737472793a206e6f74206f776e657200000000000000000060448201526064015b60405180910390fd5b6001600160a01b038116600081815260026020526040808220805460ff19169055517f6107a4a5447a4208ba14e3ec240bccf0a93828124ccf501af04601031070b1839190a250565b6001600160a01b03821660009081526002602052604081205460ff1680156102d257506001600160a01b03831660009081526001602052604090205482145b9392505050565b7fb51fa2088cc18142462c9eb244015324b2e5ec1ec2d468076354b8d6038f90f481148061032657507fd0eaac78539475183dbf59af0b1adaf2efb338211cda5ed79cbe75faffe19fd881145b8061035057507ff098b7742e998f92a3c749f35e64ef555edcecec4b78a00c532a4f385915955b81145b61039c5760405162461bcd60e51b815260206004820152601a60248201527f526f6c6552656769737472793a20726f6c6520696e636f6e6e750000000000006044820152606401610241565b3360009081526002602052604090205460ff16156103fc5760405162461bcd60e51b815260206004820152601d60248201527f526f6c6552656769737472793a2064656a6120656e72656769737472650000006044820152606401610241565b3360008181526001602081815260408084208690556002909152808320805460ff1916909217909155518392917f4dcdd48d02251367adc8f0979edf20a39ac12b840745566faf4a3b62aa38b95191a350565b80356001600160a01b038116811461046657600080fd5b919050565b60006020828403121561047d57600080fd5b6102d28261044f565b6000806040838503121561049957600080fd5b6104a28361044f565b946020939093013593505050565b6000602082840312156104c257600080fd5b503591905056fea26469706673582212203d4ec792b6fe9914794f56d357ec1adae12fc0921b14f5412dcbff0c86d8cd8364736f6c63430008140033",
  "linkReferences": {},
  "deployedLinkReferences": {}
}