{
  "_format": "hh-sol-artifact-1",
  "contractName": "AccidentContract",
  "sourceName": "contracts/AccidentContract.sol",
  "abi": [
    {
      "inputs": [],
      "stateMutability": "nonpayable",
      "type": "constructor"
    },
    {
      "anonymous": false,
      "inputs": [
        {
          "indexed": false,
          "internalType": "uint256",
          "name": "id",
          "type": "uint256"
        },
        {
          "indexed": false,
          "internalType": "address",
          "name": "driver",
          "type": "address"
        }
      ],
      "name": "AccidentDeclared",
      "type": "event"
    },
    {
      "anonymous": false,
      "inputs": [
        {
          "indexed": false,
          "internalType": "uint256",
          "name": "id",
          "type": "uint256"
        },
        {
          "indexed": false,
          "internalType": "address",
          "name": "expert",
          "type": "address"
        }
      ],
      "name": "ExpertAssigned",
      "type": "event"
    },
    {
      "anonymous": false,
      "inputs": [
        {
          "indexed": false,
          "internalType": "uint256",
          "name": "id",
          "type": "uint256"
        },
        {
          "indexed": false,
          "internalType": "enum AccidentContract.Status",
          "name": "status",
          "type": "uint8"
        }
      ],
      "name": "StatusUpdated",
      "type": "event"
    },
    {
      "inputs": [],
      "name": "accidentCount",
      "outputs": [
        {
          "internalType": "uint256",
          "name": "",
          "type": "uint256"
        }
      ],
      "stateMutability": "view",
      "type": "function"
    },
    {
      "inputs": [
        {
          "internalType": "uint256",
          "name": "",
          "type": "uint256"
        }
      ],
      "name": "accidents",
      "outputs": [
        {
          "internalType": "uint256",
          "name": "id",
          "type": "uint256"
        },
        {
          "internalType": "string",
          "name": "location",
          "type": "string"
        },
        {
          "internalType": "uint256",
          "name": "timestamp",
          "type": "uint256"
        },
        {
          "internalType": "string",
          "name": "evidenceHash",
          "type": "string"
        },
        {
          "internalType": "address",
          "name": "driver",
          "type": "address"
        },
        {
          "internalType": "address",
          "name": "expert",
          "type": "address"
        },
        {
          "internalType": "enum AccidentContract.Status",
          "name": "status",
          "type": "uint8"
        }
      ],
      "stateMutability": "view",
      "type": "function"
    },
    {
      "inputs": [
        {
          "internalType": "uint256",
          "name": "_id",
          "type": "uint256"
        },
        {
          "internalType": "address",
          "name": "_expert",
          "type": "address"
        }
      ],
      "name": "assignExpert",
      "outputs": [],
      "stateMutability": "nonpayable",
      "type": "function"
    },
    {
      "inputs": [
        {
          "internalType": "string",
          "name": "_location",
          "type": "string"
        },
        {
          "internalType": "string",
          "name": "_hash",
          "type": "string"
        }
      ],
      "name": "declareAccident",
      "outputs": [],
      "stateMutability": "nonpayable",
      "type": "function"
    },
    {
      "inputs": [
        {
          "internalType": "address",
          "name": "",
          "type": "address"
        }
      ],
      "name": "drivers",
      "outputs": [
        {
          "internalType": "bool",
          "name": "",
          "type": "bool"
        }
      ],
      "stateMutability": "view",
      "type": "function"
    },
    {
      "inputs": [
        {
          "internalType": "address",
          "name": "",
          "type": "address"
        }
      ],
      "name": "experts",
      "outputs": [
        {
          "internalType": "bool",
          "name": "",
          "type": "bool"
        }
      ],
      "stateMutability": "view",
      "type": "function"
    },
    {
      "inputs": [
        {
          "internalType": "uint256",
          "name": "_id",
          "type": "uint256"
        }
      ],
      "name": "getAccident",
      "outputs": [
        {
          "components": [
            {
              "internalType": "uint256",
              "name": "id",
              "type": "uint256"
            },
            {
              "internalType": "string",
              "name": "location",
              "type": "string"
            },
            {
              "internalType": "uint256",
              "name": "timestamp",
              "type": "uint256"
            },
            {
              "internalType": "string",
              "name": "evidenceHash",
              "type": "string"
            },
            {
              "internalType": "address",
              "name": "driver",
              "type": "address"
            },
            {
              "internalType": "address",
              "name": "expert",
              "type": "address"
            },
            {
              "internalType": "enum AccidentContract.Status",
              "name": "status",
              "type": "uint8"
            }
          ],
          "internalType": "struct AccidentContract.Accident",
          "name": "",
          "type": "tuple"
        }
      ],
      "stateMutability": "view",
      "type": "function"
    },
    {
      "inputs": [],
      "name": "owner",
      "outputs": [
        {
          "internalType": "address",
          "name": "",
          "type": "address"
        }
      ],
      "stateMutability": "view",
      "type": "function"
    },
    {
      "inputs": [
        {
          "internalType": "address",
          "name": "_driver",
          "type": "address"
        }
      ],
      "name": "registerDriver",
      "outputs": [],
      "stateMutability": "nonpayable",
      "type": "function"
    },
    {
      "inputs": [
        {
          "internalType": "address",
          "name": "_expert",
          "type": "address"
        }
      ],
      "name": "registerExpert",
      "outputs": [],
      "stateMutability": "nonpayable",
      "type": "function"
    },
    {
      "inputs": [
        {
          "internalType": "uint256",
          "name": "_id",
          "type": "uint256"
        },
        {
          "internalType": "enum AccidentContract.Status",
          "name": "_status",
          "type": "uint8"
        }
      ],
      "name": "updateStatus",
      "outputs": [],
      "stateMutability": "nonpayable",
      "type": "function"
    }
  ],
  "bytecode": "0x608060405234801561001057600080fd5b50336000806101000a81548173ffffffffffffffffffffffffffffffffffffffff021916908373ffffffffffffffffffffffffffffffffffffffff160217905550611c8a806100606000396000f3fe608060405234801561001057600080fd5b50600436106100a95760003560e01c80635c1fad08116100715780635c1fad081461017c5780638da5cb5b146101ac5780639d77f3f0146101ca5780639f0d3055146101e6578063f0f4fd5e14610204578063f2b48b7814610220576100a9565b8063104c63c3146100ae57806312572f5a146100ca5780633a1b3d31146100fa57806347d98590146101165780634aa601861461014c575b600080fd5b6100c860048036038101906100c3919061109b565b61023c565b005b6100e460048036038101906100df91906110db565b610482565b6040516100f19190611123565b60405180910390f35b610114600480360381019061010f9190611163565b6104a2565b005b610130600480360381019061012b91906111a3565b6106a8565b60405161014397969594939291906112f5565b60405180910390f35b610166600480360381019061016191906110db565b610847565b6040516101739190611123565b60405180910390f35b610196600480360381019061019191906111a3565b610867565b6040516101a3919061148c565b60405180910390f35b6101b4610b0e565b6040516101c191906114ae565b60405180910390f35b6101e460048036038101906101df91906110db565b610b32565b005b6101ee610c1b565b6040516101fb91906114c9565b60405180910390f35b61021e600480360381019061021991906110db565b610c21565b005b61023a60048036038101906102359190611619565b610d0a565b005b60008054906101000a900473ffffffffffffffffffffffffffffffffffffffff1673ffffffffffffffffffffffffffffffffffffffff163373ffffffffffffffffffffffffffffffffffffffff16146102ca576040517f08c379a00000000000000000000000000000000000000000000000000000000081526004016102c1906116dd565b60405180910390fd5b816000600260008381526020019081526020016000206000015403610324576040517f08c379a000000000000000000000000000000000000000000000000000000000815260040161031b90611749565b60405180910390fd5b600460008373ffffffffffffffffffffffffffffffffffffffff1673ffffffffffffffffffffffffffffffffffffffff16815260200190815260200160002060009054906101000a900460ff166103b0576040517f08c379a00000000000000000000000000000000000000000000000000000000081526004016103a7906117b5565b60405180910390fd5b816002600085815260200190815260200160002060050160006101000a81548173ffffffffffffffffffffffffffffffffffffffff021916908373ffffffffffffffffffffffffffffffffffffffff16021790555060016002600085815260200190815260200160002060050160146101000a81548160ff0219169083600581111561043f5761043e61127e565b5b02179055507f400cdaa91e26dc0a53831e534af41328c5396d8007be35d0065997b35a7bf7d783836040516104759291906117d5565b60405180910390a1505050565b60046020528060005260406000206000915054906101000a900460ff1681565b600460003373ffffffffffffffffffffffffffffffffffffffff1673ffffffffffffffffffffffffffffffffffffffff16815260200190815260200160002060009054906101000a900460ff1661052e576040517f08c379a0000000000000000000000000000000000000000000000000000000008152600401610525906117b5565b60405180910390fd5b816000600260008381526020019081526020016000206000015403610588576040517f08c379a000000000000000000000000000000000000000000000000000000000815260040161057f90611749565b60405180910390fd5b3373ffffffffffffffffffffffffffffffffffffffff166002600085815260200190815260200160002060050160009054906101000a900473ffffffffffffffffffffffffffffffffffffffff1673ffffffffffffffffffffffffffffffffffffffff161461062c576040517f08c379a00000000000000000000000000000000000000000000000000000000081526004016106239061184a565b60405180910390fd5b816002600085815260200190815260200160002060050160146101000a81548160ff021916908360058111156106655761066461127e565b5b02179055507f2da7b23ca63c1eb969eee5fae4acb98186abecf5358b0354a82a5183ebca6b2a838360405161069b92919061186a565b60405180910390a1505050565b60026020528060005260406000206000915090508060000154908060010180546106d1906118c2565b80601f01602080910402602001604051908101604052809291908181526020018280546106fd906118c2565b801561074a5780601f1061071f5761010080835404028352916020019161074a565b820191906000526020600020905b81548152906001019060200180831161072d57829003601f168201915b505050505090806002015490806003018054610765906118c2565b80601f0160208091040260200160405190810160405280929190818152602001828054610791906118c2565b80156107de5780601f106107b3576101008083540402835291602001916107de565b820191906000526020600020905b8154815290600101906020018083116107c157829003601f168201915b5050505050908060040160009054906101000a900473ffffffffffffffffffffffffffffffffffffffff16908060050160009054906101000a900473ffffffffffffffffffffffffffffffffffffffff16908060050160149054906101000a900460ff16905087565b60036020528060005260406000206000915054906101000a900460ff1681565b61086f610f78565b8160006002600083815260200190815260200160002060000154036108c9576040517f08c379a00000000000000000000000000000000000000000000000000000000081526004016108c090611749565b60405180910390fd5b600260008481526020019081526020016000206040518060e001604052908160008201548152602001600182018054610901906118c2565b80601f016020809104026020016040519081016040528092919081815260200182805461092d906118c2565b801561097a5780601f1061094f5761010080835404028352916020019161097a565b820191906000526020600020905b81548152906001019060200180831161095d57829003601f168201915b505050505081526020016002820154815260200160038201805461099d906118c2565b80601f01602080910402602001604051908101604052809291908181526020018280546109c9906118c2565b8015610a165780601f106109eb57610100808354040283529160200191610a16565b820191906000526020600020905b8154815290600101906020018083116109f957829003601f168201915b505050505081526020016004820160009054906101000a900473ffffffffffffffffffffffffffffffffffffffff1673ffffffffffffffffffffffffffffffffffffffff1673ffffffffffffffffffffffffffffffffffffffff1681526020016005820160009054906101000a900473ffffffffffffffffffffffffffffffffffffffff1673ffffffffffffffffffffffffffffffffffffffff1673ffffffffffffffffffffffffffffffffffffffff1681526020016005820160149054906101000a900460ff166005811115610af057610aef61127e565b5b6005811115610b0257610b0161127e565b5b81525050915050919050565b60008054906101000a900473ffffffffffffffffffffffffffffffffffffffff1681565b60008054906101000a900473ffffffffffffffffffffffffffffffffffffffff1673ffffffffffffffffffffffffffffffffffffffff163373ffffffffffffffffffffffffffffffffffffffff1614610bc0576040517f08c379a0000000000000000000000000000000000000000000000000000000008152600401610bb7906116dd565b60405180910390fd5b6001600460008373ffffffffffffffffffffffffffffffffffffffff1673ffffffffffffffffffffffffffffffffffffffff16815260200190815260200160002060006101000a81548160ff02191690831515021790555050565b60015481565b60008054906101000a900473ffffffffffffffffffffffffffffffffffffffff1673ffffffffffffffffffffffffffffffffffffffff163373ffffffffffffffffffffffffffffffffffffffff1614610caf576040517f08c379a0000000000000000000000000000000000000000000000000000000008152600401610ca6906116dd565b60405180910390fd5b6001600360008373ffffffffffffffffffffffffffffffffffffffff1673ffffffffffffffffffffffffffffffffffffffff16815260200190815260200160002060006101000a81548160ff02191690831515021790555050565b600360003373ffffffffffffffffffffffffffffffffffffffff1673ffffffffffffffffffffffffffffffffffffffff16815260200190815260200160002060009054906101000a900460ff16610d96576040517f08c379a0000000000000000000000000000000000000000000000000000000008152600401610d8d9061193f565b60405180910390fd5b60016000815480929190610da99061198e565b91905055506040518060e0016040528060015481526020018381526020014281526020018281526020013373ffffffffffffffffffffffffffffffffffffffff168152602001600073ffffffffffffffffffffffffffffffffffffffff16815260200160006005811115610e2057610e1f61127e565b5b815250600260006001548152602001908152602001600020600082015181600001556020820151816001019081610e579190611b82565b50604082015181600201556060820151816003019081610e779190611b82565b5060808201518160040160006101000a81548173ffffffffffffffffffffffffffffffffffffffff021916908373ffffffffffffffffffffffffffffffffffffffff16021790555060a08201518160050160006101000a81548173ffffffffffffffffffffffffffffffffffffffff021916908373ffffffffffffffffffffffffffffffffffffffff16021790555060c08201518160050160146101000a81548160ff02191690836005811115610f3157610f3061127e565b5b02179055509050507f8f7088039350a311c098aa3d60e75e0bd825c11ee1b6c57c3b0b88c66811386160015433604051610f6c9291906117d5565b60405180910390a15050565b6040518060e0016040528060008152602001606081526020016000815260200160608152602001600073ffffffffffffffffffffffffffffffffffffffff168152602001600073ffffffffffffffffffffffffffffffffffffffff16815260200160006005811115610fed57610fec61127e565b5b81525090565b6000604051905090565b600080fd5b600080fd5b6000819050919050565b61101a81611007565b811461102557600080fd5b50565b60008135905061103781611011565b92915050565b600073ffffffffffffffffffffffffffffffffffffffff82169050919050565b60006110688261103d565b9050919050565b6110788161105d565b811461108357600080fd5b50565b6000813590506110958161106f565b92915050565b600080604083850312156110b2576110b1610ffd565b5b60006110c085828601611028565b92505060206110d185828601611086565b9150509250929050565b6000602082840312156110f1576110f0610ffd565b5b60006110ff84828501611086565b91505092915050565b60008115159050919050565b61111d81611108565b82525050565b60006020820190506111386000830184611114565b92915050565b6006811061114b57600080fd5b50565b60008135905061115d8161113e565b92915050565b6000806040838503121561117a57611179610ffd565b5b600061118885828601611028565b92505060206111998582860161114e565b9150509250929050565b6000602082840312156111b9576111b8610ffd565b5b60006111c784828501611028565b91505092915050565b6111d981611007565b82525050565b600081519050919050565b600082825260208201905092915050565b60005b838110156112195780820151818401526020810190506111fe565b60008484015250505050565b6000601f19601f8301169050919050565b6000611241826111df565b61124b81856111ea565b935061125b8185602086016111fb565b61126481611225565b840191505092915050565b6112788161105d565b82525050565b7f4e487b7100000000000000000000000000000000000000000000000000000000600052602160045260246000fd5b600681106112be576112bd61127e565b5b50565b60008190506112cf826112ad565b919050565b60006112df826112c1565b9050919050565b6112ef816112d4565b82525050565b600060e08201905061130a600083018a6111d0565b818103602083015261131c8189611236565b905061132b60408301886111d0565b818103606083015261133d8187611236565b905061134c608083018661126f565b61135960a083018561126f565b61136660c08301846112e6565b98975050505050505050565b61137b81611007565b82525050565b600082825260208201905092915050565b600061139d826111df565b6113a78185611381565b93506113b78185602086016111fb565b6113c081611225565b840191505092915050565b6113d48161105d565b82525050565b6113e3816112d4565b82525050565b600060e0830160008301516114016000860182611372565b50602083015184820360208601526114198282611392565b915050604083015161142e6040860182611372565b50606083015184820360608601526114468282611392565b915050608083015161145b60808601826113cb565b5060a083015161146e60a08601826113cb565b5060c083015161148160c08601826113da565b508091505092915050565b600060208201905081810360008301526114a681846113e9565b905092915050565b60006020820190506114c3600083018461126f565b92915050565b60006020820190506114de60008301846111d0565b92915050565b600080fd5b600080fd5b7f4e487b7100000000000000000000000000000000000000000000000000000000600052604160045260246000fd5b61152682611225565b810181811067ffffffffffffffff82111715611545576115446114ee565b5b80604052505050565b6000611558610ff3565b9050611564828261151d565b919050565b600067ffffffffffffffff821115611584576115836114ee565b5b61158d82611225565b9050602081019050919050565b82818337600083830152505050565b60006115bc6115b784611569565b61154e565b9050828152602081018484840111156115d8576115d76114e9565b5b6115e384828561159a565b509392505050565b600082601f830112611600576115ff6114e4565b5b81356116108482602086016115a9565b91505092915050565b600080604083850312156116305761162f610ffd565b5b600083013567ffffffffffffffff81111561164e5761164d611002565b5b61165a858286016115eb565b925050602083013567ffffffffffffffff81111561167b5761167a611002565b5b611687858286016115eb565b9150509250929050565b7f4f6e6c79206f776e657200000000000000000000000000000000000000000000600082015250565b60006116c7600a836111ea565b91506116d282611691565b602082019050919050565b600060208201905081810360008301526116f6816116ba565b9050919050565b7f4163636964656e74206e6f7420666f756e640000000000000000000000000000600082015250565b60006117336012836111ea565b915061173e826116fd565b602082019050919050565b6000602082019050818103600083015261176281611726565b9050919050565b7f4e6f742061207265676973746572656420657870657274000000000000000000600082015250565b600061179f6017836111ea565b91506117aa82611769565b602082019050919050565b600060208201905081810360008301526117ce81611792565b9050919050565b60006040820190506117ea60008301856111d0565b6117f7602083018461126f565b9392505050565b7f4e6f742061737369676e65642065787065727400000000000000000000000000600082015250565b60006118346013836111ea565b915061183f826117fe565b602082019050919050565b6000602082019050818103600083015261186381611827565b9050919050565b600060408201905061187f60008301856111d0565b61188c60208301846112e6565b9392505050565b7f4e487b7100000000000000000000000000000000000000000000000000000000600052602260045260246000fd5b600060028204905060018216806118da57607f821691505b6020821081036118ed576118ec611893565b5b50919050565b7f4e6f742061207265676973746572656420647269766572000000000000000000600082015250565b60006119296017836111ea565b9150611934826118f3565b602082019050919050565b600060208201905081810360008301526119588161191c565b9050919050565b7f4e487b7100000000000000000000000000000000000000000000000000000000600052601160045260246000fd5b600061199982611007565b91507fffffffffffffffffffffffffffffffffffffffffffffffffffffffffffffffff82036119cb576119ca61195f565b5b600182019050919050565b60008190508160005260206000209050919050565b60006020601f8301049050919050565b600082821b905092915050565b600060088302611a387fffffffffffffffffffffffffffffffffffffffffffffffffffffffffffffffff826119fb565b611a4286836119fb565b95508019841693508086168417925050509392505050565b6000819050919050565b6000611a7f611a7a611a7584611007565b611a5a565b611007565b9050919050565b6000819050919050565b611a9983611a64565b611aad611aa582611a86565b848454611a08565b825550505050565b600090565b611ac2611ab5565b611acd818484611a90565b505050565b5b81811015611af157611ae6600082611aba565b600181019050611ad3565b5050565b601f821115611b3657611b07816119d6565b611b10846119eb565b81016020851015611b1f578190505b611b33611b2b856119eb565b830182611ad2565b50505b505050565b600082821c905092915050565b6000611b5960001984600802611b3b565b1980831691505092915050565b6000611b728383611b48565b9150826002028217905092915050565b611b8b826111df565b67ffffffffffffffff811115611ba457611ba36114ee565b5b611bae82546118c2565b611bb9828285611af5565b600060209050601f831160018114611bec5760008415611bda578287015190505b611be48582611b66565b865550611c4c565b601f198416611bfa866119d6565b60005b82811015611c2257848901518255600182019150602085019450602081019050611bfd565b86831015611c3f5784890151611c3b601f891682611b48565b8355505b6001600288020188555050505b50505050505056fea26469706673582212209e8c1d74f9300a8c5cdadc21da9bc06e8cb100c5121ad8796c5a8e06279019ff64736f6c63430008140033",
  "linkReferences": {},
  "deployedLinkReferences": {}
}