{
  "_format": "hh-sol-artifact-1",
  "contractName": "AccidentDApp",
  "sourceName": "contracts/AccidentDApp.sol",
  "abi": [
    {
      "inputs": [
        {
          "internalType": "address",
          "name": "_roleRegistry",
          "type": "address"
        },
        {
          "internalType": "address",
          "name": "_accidentStorage",
          "type": "address"
        }
      ],
      "stateMutability": "nonpayable",
      "type": "constructor"
    },
    {
      "anonymous": false,
      "inputs": [
        {
          "indexed": true,
          "internalType": "uint256",
          "name": "id",
          "type": "uint256"
        }
      ],
      "name": "AccidentClosed",
      "type": "event"
    },
    {
      "anonymous": false,
      "inputs": [
        {
          "indexed": true,
          "internalType": "uint256",
          "name": "id",
          "type": "uint256"
        },
        {
          "indexed": true,
          "internalType": "address",
          "name": "driver",
          "type": "address"
        },
        {
          "indexed": false,
          "internalType": "string",
          "name": "evidenceHash",
          "type": "string"
        },
        {
          "indexed": false,
          "internalType": "string",
          "name": "evidenceCID",
          "type": "string"
        },
        {
          "indexed": false,
          "internalType": "uint256",
          "name": "timestamp",
          "type": "uint256"
        }
      ],
      "name": "AccidentDeclared",
      "type": "event"
    },
    {
      "anonymous": false,
      "inputs": [
        {
          "indexed": true,
          "internalType": "uint256",
          "name": "id",
          "type": "uint256"
        },
        {
          "indexed": true,
          "internalType": "address",
          "name": "insurer",
          "type": "address"
        },
        {
          "indexed": false,
          "internalType": "string",
          "name": "reason",
          "type": "string"
        }
      ],
      "name": "AccidentRejected",
      "type": "event"
    },
    {
      "anonymous": false,
      "inputs": [
        {
          "indexed": true,
          "internalType": "uint256",
          "name": "id",
          "type": "uint256"
        },
        {
          "indexed": true,
          "internalType": "address",
          "name": "insurer",
          "type": "address"
        }
      ],
      "name": "AccidentValidated",
      "type": "event"
    },
    {
      "anonymous": false,
      "inputs": [
        {
          "indexed": true,
          "internalType": "uint256",
          "name": "id",
          "type": "uint256"
        },
        {
          "indexed": true,
          "internalType": "address",
          "name": "expert",
          "type": "address"
        },
        {
          "indexed": true,
          "internalType": "address",
          "name": "insurer",
          "type": "address"
        }
      ],
      "name": "ExpertAssigned",
      "type": "event"
    },
    {
      "anonymous": false,
      "inputs": [
        {
          "indexed": true,
          "internalType": "uint256",
          "name": "id",
          "type": "uint256"
        },
        {
          "indexed": true,
          "internalType": "address",
          "name": "expert",
          "type": "address"
        },
        {
          "indexed": false,
          "internalType": "string",
          "name": "reportHash",
          "type": "string"
        },
        {
          "indexed": false,
          "internalType": "string",
          "name": "reportCID",
          "type": "string"
        }
      ],
      "name": "ReportSubmitted",
      "type": "event"
    },
    {
      "inputs": [],
      "name": "ROLE_DRIVER",
      "outputs": [
        {
          "internalType": "bytes32",
          "name": "",
          "type": "bytes32"
        }
      ],
      "stateMutability": "view",
      "type": "function"
    },
    {
      "inputs": [],
      "name": "ROLE_EXPERT",
      "outputs": [
        {
          "internalType": "bytes32",
          "name": "",
          "type": "bytes32"
        }
      ],
      "stateMutability": "view",
      "type": "function"
    },
    {
      "inputs": [],
      "name": "ROLE_INSURER",
      "outputs": [
        {
          "internalType": "bytes32",
          "name": "",
          "type": "bytes32"
        }
      ],
      "stateMutability": "view",
      "type": "function"
    },
    {
      "inputs": [],
      "name": "accidentStorage",
      "outputs": [
        {
          "internalType": "contract AccidentStorage",
          "name": "",
          "type": "address"
        }
      ],
      "stateMutability": "view",
      "type": "function"
    },
    {
      "inputs": [
        {
          "internalType": "uint256",
          "name": "id",
          "type": "uint256"
        },
        {
          "internalType": "address",
          "name": "expert",
          "type": "address"
        }
      ],
      "name": "assignExpert",
      "outputs": [],
      "stateMutability": "nonpayable",
      "type": "function"
    },
    {
      "inputs": [
        {
          "internalType": "uint256",
          "name": "id",
          "type": "uint256"
        }
      ],
      "name": "assignSelf",
      "outputs": [],
      "stateMutability": "nonpayable",
      "type": "function"
    },
    {
      "inputs": [
        {
          "internalType": "uint256",
          "name": "id",
          "type": "uint256"
        }
      ],
      "name": "closeAccident",
      "outputs": [],
      "stateMutability": "nonpayable",
      "type": "function"
    },
    {
      "inputs": [
        {
          "internalType": "string",
          "name": "evidenceHash",
          "type": "string"
        },
        {
          "internalType": "string",
          "name": "evidenceCID",
          "type": "string"
        },
        {
          "internalType": "string",
          "name": "location",
          "type": "string"
        }
      ],
      "name": "declareAccident",
      "outputs": [
        {
          "internalType": "uint256",
          "name": "",
          "type": "uint256"
        }
      ],
      "stateMutability": "nonpayable",
      "type": "function"
    },
    {
      "inputs": [
        {
          "internalType": "uint256",
          "name": "id",
          "type": "uint256"
        }
      ],
      "name": "getAccident",
      "outputs": [
        {
          "components": [
            {
              "internalType": "uint256",
              "name": "id",
              "type": "uint256"
            },
            {
              "internalType": "address",
              "name": "driver",
              "type": "address"
            },
            {
              "internalType": "address",
              "name": "expert",
              "type": "address"
            },
            {
              "internalType": "address",
              "name": "insurer",
              "type": "address"
            },
            {
              "internalType": "string",
              "name": "evidenceHash",
              "type": "string"
            },
            {
              "internalType": "string",
              "name": "evidenceCID",
              "type": "string"
            },
            {
              "internalType": "string",
              "name": "reportHash",
              "type": "string"
            },
            {
              "internalType": "string",
              "name": "reportCID",
              "type": "string"
            },
            {
              "internalType": "string",
              "name": "location",
              "type": "string"
            },
            {
              "internalType": "uint256",
              "name": "timestamp",
              "type": "uint256"
            },
            {
              "internalType": "enum AccidentStorage.Status",
              "name": "status",
              "type": "uint8"
            },
            {
              "internalType": "bool",
              "name": "driverSigned",
              "type": "bool"
            },
            {
              "internalType": "bool",
              "name": "expertSigned",
              "type": "bool"
            }
          ],
          "internalType": "struct AccidentStorage.Accident",
          "name": "",
          "type": "tuple"
        }
      ],
      "stateMutability": "view",
      "type": "function"
    },
    {
      "inputs": [],
      "name": "getAccidentCount",
      "outputs": [
        {
          "internalType": "uint256",
          "name": "",
          "type": "uint256"
        }
      ],
      "stateMutability": "view",
      "type": "function"
    },
    {
      "inputs": [
        {
          "internalType": "uint256",
          "name": "id",
          "type": "uint256"
        }
      ],
      "name": "getAccidentStatus",
      "outputs": [
        {
          "internalType": "enum AccidentStorage.Status",
          "name": "",
          "type": "uint8"
        }
      ],
      "stateMutability": "view",
      "type": "function"
    },
    {
      "inputs": [],
      "name": "owner",
      "outputs": [
        {
          "internalType": "address",
          "name": "",
          "type": "address"
        }
      ],
      "stateMutability": "view",
      "type": "function"
    },
    {
      "inputs": [
        {
          "internalType": "uint256",
          "name": "id",
          "type": "uint256"
        },
        {
          "internalType": "string",
          "name": "reason",
          "type": "string"
        }
      ],
      "name": "rejectAccident",
      "outputs": [],
      "stateMutability": "nonpayable",
      "type": "function"
    },
    {
      "inputs": [],
      "name": "roleRegistry",
      "outputs": [
        {
          "internalType": "contract RoleRegistry",
          "name": "",
          "type": "address"
        }
      ],
      "stateMutability": "view",
      "type": "function"
    },
    {
      "inputs": [
        {
          "internalType": "uint256",
          "name": "id",
          "type": "uint256"
        },
        {
          "internalType": "string",
          "name": "reportHash",
          "type": "string"
        },
        {
          "internalType": "string",
          "name": "reportCID",
          "type": "string"
        }
      ],
      "name": "submitReport",
      "outputs": [],
      "stateMutability": "nonpayable",
      "type": "function"
    },
    {
      "inputs": [
        {
          "internalType": "uint256",
          "name": "id",
          "type": "uint256"
        }
      ],
      "name": "validateAccident",
      "outputs": [],
      "stateMutability": "nonpayable",
      "type": "function"
    }
  ],
  "bytecode": "0x60e06040523480156200001157600080fd5b5060405162002820380380620028208339810160408190526200003491620002b1565b6001600160a01b038216620000a35760405162461bcd60e51b815260206004820152602a60248201527f4163636964656e74444170703a20696e76616c696420526f6c655265676973746044820152697279206164647265737360b01b60648201526084015b60405180910390fd5b6001600160a01b038116620001115760405162461bcd60e51b815260206004820152602d60248201527f4163636964656e74444170703a20696e76616c6964204163636964656e74537460448201526c6f72616765206164647265737360981b60648201526084016200009a565b60028054336001600160a01b0319918216179091556000805482166001600160a01b0385811691821790925560018054909316918416919091179091556040805163ee0042ad60e01b8152905163ee0042ad916004808201926020929091908290030181865afa1580156200018a573d6000803e3d6000fd5b505050506040513d601f19601f82011682018060405250810190620001b09190620002e9565b60808181525050816001600160a01b0316632aa88d5d6040518163ffffffff1660e01b8152600401602060405180830381865afa158015620001f6573d6000803e3d6000fd5b505050506040513d601f19601f820116820180604052508101906200021c9190620002e9565b60a08181525050816001600160a01b031663c968db0d6040518163ffffffff1660e01b8152600401602060405180830381865afa15801562000262573d6000803e3d6000fd5b505050506040513d601f19601f82011682018060405250810190620002889190620002e9565b60c05250620003039050565b80516001600160a01b0381168114620002ac57600080fd5b919050565b60008060408385031215620002c557600080fd5b620002d08362000294565b9150620002e06020840162000294565b90509250929050565b600060208284031215620002fc57600080fd5b5051919050565b60805160a05160c0516124c36200035d6000396000818161023e015281816102c5015281816106460152610a7c015260008181610182015281816104af015261174701526000818161028b0152610dee01526124c36000f3fe608060405234801561001057600080fd5b50600436106101005760003560e01c80638da5cb5b11610097578063c968db0d11610066578063c968db0d14610239578063d45f4ada14610260578063e4db66ac14610273578063ee0042ad1461028657600080fd5b80638da5cb5b146101f8578063a58704c51461020b578063b489e0751461021e578063b880bbf81461022657600080fd5b80632aa88d5d116100d35780632aa88d5d1461017d57806330761b02146101b25780635c1fad08146101c5578063684d3128146101e557600080fd5b806308c7325914610105578063104c63c31461013557806312ae95af1461014a578063287f4b1f1461015d575b600080fd5b600054610118906001600160a01b031681565b6040516001600160a01b0390911681526020015b60405180910390f35b610148610143366004611b29565b6102ad565b005b610148610158366004611ba2565b61062e565b61017061016b366004611bee565b610962565b60405161012c9190611c3f565b6101a47f000000000000000000000000000000000000000000000000000000000000000081565b60405190815260200161012c565b6101486101c0366004611bee565b610a64565b6101d86101d3366004611bee565b610cd3565b60405161012c9190611ca3565b6101a46101f3366004611dd8565b610dd5565b600254610118906001600160a01b031681565b610148610219366004611e72565b6110d5565b6101a46114ab565b610148610234366004611bee565b61151e565b6101a47f000000000000000000000000000000000000000000000000000000000000000081565b61014861026e366004611bee565b61172f565b600154610118906001600160a01b031681565b6101a47f000000000000000000000000000000000000000000000000000000000000000081565b60005460405163ac4ab3fb60e01b81523360048201527f000000000000000000000000000000000000000000000000000000000000000060248201819052916001600160a01b03169063ac4ab3fb90604401602060405180830381865afa15801561031c573d6000803e3d6000fd5b505050506040513d601f19601f820116820180604052508101906103409190611f01565b6103655760405162461bcd60e51b815260040161035c90611f1c565b60405180910390fd5b600154604051634f558e7960e01b81526004810185905284916001600160a01b031690634f558e7990602401602060405180830381865afa1580156103ae573d6000803e3d6000fd5b505050506040513d601f19601f820116820180604052508101906103d29190611f01565b6103ee5760405162461bcd60e51b815260040161035c90611f53565b83600080600154604051632e31150760e11b8152600481018590526001600160a01b0390911690635c622a0e90602401602060405180830381865afa15801561043b573d6000803e3d6000fd5b505050506040513d601f19601f8201168201806040525081019061045f9190611f97565b600581111561047057610470611c07565b1461048d5760405162461bcd60e51b815260040161035c90611fb2565b60005460405163ac4ab3fb60e01b81526001600160a01b0387811660048301527f000000000000000000000000000000000000000000000000000000000000000060248301529091169063ac4ab3fb90604401602060405180830381865afa1580156104fd573d6000803e3d6000fd5b505050506040513d601f19601f820116820180604052508101906105219190611f01565b6105885760405162461bcd60e51b815260206004820152603260248201527f4163636964656e74444170703a2061647265737365206e6f6e20656e726567696044820152711cdd1c99594818dbdb5b5948195e1c195c9d60721b606482015260840161035c565b600154604051639a3ce83360e01b8152600481018890526001600160a01b03878116602483015290911690639a3ce83390604401600060405180830381600087803b1580156105d657600080fd5b505af11580156105ea573d6000803e3d6000fd5b50506040513392506001600160a01b038816915088907fb721c98dcbbefcc7a66d437f6d4b9e13ee166146f182c7fe6d74406333cf0dac90600090a4505050505050565b60005460405163ac4ab3fb60e01b81523360048201527f000000000000000000000000000000000000000000000000000000000000000060248201819052916001600160a01b03169063ac4ab3fb90604401602060405180830381865afa15801561069d573d6000803e3d6000fd5b505050506040513d601f19601f820116820180604052508101906106c19190611f01565b6106dd5760405162461bcd60e51b815260040161035c90611f1c565b600154604051634f558e7960e01b81526004810186905285916001600160a01b031690634f558e7990602401602060405180830381865afa158015610726573d6000803e3d6000fd5b505050506040513d601f19601f8201168201806040525081019061074a9190611f01565b6107665760405162461bcd60e51b815260040161035c90611f53565b600154604051632e31150760e11b8152600481018790526000916001600160a01b031690635c622a0e90602401602060405180830381865afa1580156107b0573d6000803e3d6000fd5b505050506040513d601f19601f820116820180604052508101906107d49190611f97565b905060028160058111156107ea576107ea611c07565b14806108075750600181600581111561080557610805611c07565b145b6108655760405162461bcd60e51b815260206004820152602960248201527f4163636964656e74444170703a2072656a657420696d706f737369626c65206160448201526820636520737461646560b81b606482015260840161035c565b836108b25760405162461bcd60e51b815260206004820152601c60248201527f4163636964656e74444170703a20726169736f6e207265717569736500000000604482015260640161035c565b60015460405163679ad41f60e01b8152600481018890523360248201526001600160a01b039091169063679ad41f90604401600060405180830381600087803b1580156108fe57600080fd5b505af1158015610912573d6000803e3d6000fd5b50505050336001600160a01b0316867fc5e24cbc6f9900f36bd7047ee778390f53ea8fe60d5b0457cd093cc4be09c9f58787604051610952929190612027565b60405180910390a3505050505050565b600154604051634f558e7960e01b81526004810183905260009183916001600160a01b0390911690634f558e7990602401602060405180830381865afa1580156109b0573d6000803e3d6000fd5b505050506040513d601f19601f820116820180604052508101906109d49190611f01565b6109f05760405162461bcd60e51b815260040161035c90611f53565b600154604051632e31150760e11b8152600481018590526001600160a01b0390911690635c622a0e90602401602060405180830381865afa158015610a39573d6000803e3d6000fd5b505050506040513d601f19601f82011682018060405250810190610a5d9190611f97565b9392505050565b60005460405163ac4ab3fb60e01b81523360048201527f000000000000000000000000000000000000000000000000000000000000000060248201819052916001600160a01b03169063ac4ab3fb90604401602060405180830381865afa158015610ad3573d6000803e3d6000fd5b505050506040513d601f19601f82011682018060405250810190610af79190611f01565b610b135760405162461bcd60e51b815260040161035c90611f1c565b600154604051634f558e7960e01b81526004810184905283916001600160a01b031690634f558e7990602401602060405180830381865afa158015610b5c573d6000803e3d6000fd5b505050506040513d601f19601f82011682018060405250810190610b809190611f01565b610b9c5760405162461bcd60e51b815260040161035c90611f53565b82600280600154604051632e31150760e11b8152600481018590526001600160a01b0390911690635c622a0e90602401602060405180830381865afa158015610be9573d6000803e3d6000fd5b505050506040513d601f19601f82011682018060405250810190610c0d9190611f97565b6005811115610c1e57610c1e611c07565b14610c3b5760405162461bcd60e51b815260040161035c90611fb2565b600154604051638d55027960e01b8152600481018790523360248201526001600160a01b0390911690638d55027990604401600060405180830381600087803b158015610c8757600080fd5b505af1158015610c9b573d6000803e3d6000fd5b50506040513392508791507fa6a0e06db219655fc61bf98d56f2157b7d6727581ef235be76bff791956d564c90600090a35050505050565b610cdb611a7d565b600154604051634f558e7960e01b81526004810184905283916001600160a01b031690634f558e7990602401602060405180830381865afa158015610d24573d6000803e3d6000fd5b505050506040513d601f19601f82011682018060405250810190610d489190611f01565b610d645760405162461bcd60e51b815260040161035c90611f53565b600154604051630b83f5a160e31b8152600481018590526001600160a01b0390911690635c1fad0890602401600060405180830381865afa158015610dad573d6000803e3d6000fd5b505050506040513d6000823e601f3d908101601f19168201604052610a5d9190810190612116565b6000805460405163ac4ab3fb60e01b81523360048201527f000000000000000000000000000000000000000000000000000000000000000060248201819052916001600160a01b03169063ac4ab3fb90604401602060405180830381865afa158015610e45573d6000803e3d6000fd5b505050506040513d601f19601f82011682018060405250810190610e699190611f01565b610e855760405162461bcd60e51b815260040161035c90611f1c565b8787600082828080601f0160208091040260200160405190810160405280939291908181526020018383808284376000920191909152505082519293505060409091149050610ee65760405162461bcd60e51b815260040161035c9061229e565b60005b6040811015610f9a576000828281518110610f0657610f066122ef565b01602001516001600160f81b0319169050600360fc1b8110801590610f395750603960f81b6001600160f81b0319821611155b80610f6b5750606160f81b6001600160f81b0319821610801590610f6b5750603360f91b6001600160f81b0319821611155b610f875760405162461bcd60e51b815260040161035c90612305565b5080610f928161234d565b915050610ee9565b5085610fe85760405162461bcd60e51b815260206004820152601f60248201527f4163636964656e74444170703a206c6f636174696f6e20726571756972656400604482015260640161035c565b6000600160009054906101000a90046001600160a01b03166001600160a01b0316637829481e338e8e8e8e8e8e6040518863ffffffff1660e01b81526004016110379796959493929190612374565b6020604051808303816000875af1158015611056573d6000803e3d6000fd5b505050506040513d601f19601f8201168201806040525081019061107a91906123cf565b9050336001600160a01b0316817ffc377d45075bd50b11774d7aaaf6a2711d808ea5ce8c94dc5777956830d439578e8e8e8e426040516110be9594939291906123e8565b60405180910390a39b9a5050505050505050505050565b600154604051634f558e7960e01b81526004810187905286916001600160a01b031690634f558e7990602401602060405180830381865afa15801561111e573d6000803e3d6000fd5b505050506040513d601f19601f820116820180604052508101906111429190611f01565b61115e5760405162461bcd60e51b815260040161035c90611f53565b85600180600154604051632e31150760e11b8152600481018590526001600160a01b0390911690635c622a0e90602401602060405180830381865afa1580156111ab573d6000803e3d6000fd5b505050506040513d601f19601f820116820180604052508101906111cf9190611f97565b60058111156111e0576111e0611c07565b146111fd5760405162461bcd60e51b815260040161035c90611fb2565b8686600082828080601f016020809104026020016040519081016040528093929190818152602001838380828437600092019190915250508251929350506040909114905061125e5760405162461bcd60e51b815260040161035c9061229e565b60005b604081101561131257600082828151811061127e5761127e6122ef565b01602001516001600160f81b0319169050600360fc1b81108015906112b15750603960f81b6001600160f81b0319821611155b806112e35750606160f81b6001600160f81b03198216108015906112e35750603360f91b6001600160f81b0319821611155b6112ff5760405162461bcd60e51b815260040161035c90612305565b508061130a8161234d565b915050611261565b50600154604051630b83f5a160e31b8152600481018d905233916001600160a01b031690635c1fad0890602401600060405180830381865afa15801561135c573d6000803e3d6000fd5b505050506040513d6000823e601f3d908101601f191682016040526113849190810190612116565b604001516001600160a01b0316146113ec5760405162461bcd60e51b815260206004820152602560248201527f4163636964656e74444170703a206e6f74207468652061737369676e656420656044820152641e1c195c9d60da1b606482015260840161035c565b60015460405163a58704c560e01b81526001600160a01b039091169063a58704c590611424908e908e908e908e908e90600401612422565b600060405180830381600087803b15801561143e57600080fd5b505af1158015611452573d6000803e3d6000fd5b50505050336001600160a01b03168b7f8526a114dd971e972103855de1cea6dd7e7818d619bf53728cec07ac9e7841638c8c8c8c604051611496949392919061245b565b60405180910390a35050505050505050505050565b6001546040805163b489e07560e01b815290516000926001600160a01b03169163b489e0759160048083019260209291908290030181865afa1580156114f5573d6000803e3d6000fd5b505050506040513d601f19601f8201168201806040525081019061151991906123cf565b905090565b6002546001600160a01b031633146115785760405162461bcd60e51b815260206004820152601760248201527f4163636964656e74444170703a206e6f74206f776e6572000000000000000000604482015260640161035c565b600154604051634f558e7960e01b81526004810183905282916001600160a01b031690634f558e7990602401602060405180830381865afa1580156115c1573d6000803e3d6000fd5b505050506040513d601f19601f820116820180604052508101906115e59190611f01565b6116015760405162461bcd60e51b815260040161035c90611f53565b81600380600154604051632e31150760e11b8152600481018590526001600160a01b0390911690635c622a0e90602401602060405180830381865afa15801561164e573d6000803e3d6000fd5b505050506040513d601f19601f820116820180604052508101906116729190611f97565b600581111561168357611683611c07565b146116a05760405162461bcd60e51b815260040161035c90611fb2565b600154604051631710177f60e31b8152600481018690526001600160a01b039091169063b880bbf890602401600060405180830381600087803b1580156116e657600080fd5b505af11580156116fa573d6000803e3d6000fd5b50506040518692507f8d0edaba246160318c764858b9f8506e78f10775a9ba4ebb68219447b941a10e9150600090a250505050565b60005460405163ac4ab3fb60e01b81523360048201527f000000000000000000000000000000000000000000000000000000000000000060248201819052916001600160a01b03169063ac4ab3fb90604401602060405180830381865afa15801561179e573d6000803e3d6000fd5b505050506040513d601f19601f820116820180604052508101906117c29190611f01565b6117de5760405162461bcd60e51b815260040161035c90611f1c565b600154604051634f558e7960e01b81526004810184905283916001600160a01b031690634f558e7990602401602060405180830381865afa158015611827573d6000803e3d6000fd5b505050506040513d601f19601f8201168201806040525081019061184b9190611f01565b6118675760405162461bcd60e51b815260040161035c90611f53565b82600080600154604051632e31150760e11b8152600481018590526001600160a01b0390911690635c622a0e90602401602060405180830381865afa1580156118b4573d6000803e3d6000fd5b505050506040513d601f19601f820116820180604052508101906118d89190611f97565b60058111156118e9576118e9611c07565b146119065760405162461bcd60e51b815260040161035c90611fb2565b600154604051630b83f5a160e31b8152600481018790526000916001600160a01b031690635c1fad0890602401600060405180830381865afa158015611950573d6000803e3d6000fd5b505050506040513d6000823e601f3d908101601f191682016040526119789190810190612116565b604001516001600160a01b0316146119e35760405162461bcd60e51b815260206004820152602860248201527f4163636964656e74444170703a20756e20657870657274206573742064656a616044820152672061737369676e6560c01b606482015260840161035c565b600154604051639a3ce83360e01b8152600481018790523360248201526001600160a01b0390911690639a3ce83390604401600060405180830381600087803b158015611a2f57600080fd5b505af1158015611a43573d6000803e3d6000fd5b50506040516000925033915087907fb721c98dcbbefcc7a66d437f6d4b9e13ee166146f182c7fe6d74406333cf0dac908490a45050505050565b604051806101a001604052806000815260200160006001600160a01b0316815260200160006001600160a01b0316815260200160006001600160a01b0316815260200160608152602001606081526020016060815260200160608152602001606081526020016000815260200160006005811115611afd57611afd611c07565b815260006020820181905260409091015290565b6001600160a01b0381168114611b2657600080fd5b50565b60008060408385031215611b3c57600080fd5b823591506020830135611b4e81611b11565b809150509250929050565b60008083601f840112611b6b57600080fd5b50813567ffffffffffffffff811115611b8357600080fd5b602083019150836020828501011115611b9b57600080fd5b9250929050565b600080600060408486031215611bb757600080fd5b83359250602084013567ffffffffffffffff811115611bd557600080fd5b611be186828701611b59565b9497909650939450505050565b600060208284031215611c0057600080fd5b5035919050565b634e487b7160e01b600052602160045260246000fd5b60068110611c3b57634e487b7160e01b600052602160045260246000fd5b9052565b60208101611c4d8284611c1d565b92915050565b60005b83811015611c6e578181015183820152602001611c56565b50506000910152565b60008151808452611c8f816020860160208601611c53565b601f01601f19169290920160200192915050565b602081528151602082015260006020830151611cca60408401826001600160a01b03169052565b5060408301516001600160a01b03811660608401525060608301516001600160a01b03811660808401525060808301516101a08060a0850152611d116101c0850183611c77565b915060a0850151601f19808685030160c0870152611d2f8483611c77565b935060c08701519150808685030160e0870152611d4c8483611c77565b935060e08701519150610100818786030181880152611d6b8584611c77565b945080880151925050610120818786030181880152611d8a8584611c77565b908801516101408881019190915288015190945091506101609050611db181870183611c1d565b8601519050610180611dc68682018315159052565b90950151151593019290925250919050565b60008060008060008060608789031215611df157600080fd5b863567ffffffffffffffff80821115611e0957600080fd5b611e158a838b01611b59565b90985096506020890135915080821115611e2e57600080fd5b611e3a8a838b01611b59565b90965094506040890135915080821115611e5357600080fd5b50611e6089828a01611b59565b979a9699509497509295939492505050565b600080600080600060608688031215611e8a57600080fd5b85359450602086013567ffffffffffffffff80821115611ea957600080fd5b611eb589838a01611b59565b90965094506040880135915080821115611ece57600080fd5b50611edb88828901611b59565b969995985093965092949392505050565b80518015158114611efc57600080fd5b919050565b600060208284031215611f1357600080fd5b610a5d82611eec565b6020808252601f908201527f4163636964656e74444170703a20756e617574686f72697a656420726f6c6500604082015260600190565b6020808252818101527f4163636964656e74444170703a206163636964656e74206e6f7420666f756e64604082015260600190565b805160068110611efc57600080fd5b600060208284031215611fa957600080fd5b610a5d82611f88565b6020808252602c908201527f4163636964656e74444170703a20696e76616c69642073746174757320666f7260408201526b103a3434b99030b1ba34b7b760a11b606082015260800190565b81835281816020850137506000828201602090810191909152601f909101601f19169091010190565b60208152600061203b602083018486611ffe565b949350505050565b634e487b7160e01b600052604160045260246000fd5b6040516101a0810167ffffffffffffffff8111828210171561207d5761207d612043565b60405290565b8051611efc81611b11565b600082601f83011261209f57600080fd5b815167ffffffffffffffff808211156120ba576120ba612043565b604051601f8301601f19908116603f011681019082821181831017156120e2576120e2612043565b816040528381528660208588010111156120fb57600080fd5b61210c846020830160208901611c53565b9695505050505050565b60006020828403121561212857600080fd5b815167ffffffffffffffff8082111561214057600080fd5b908301906101a0828603121561215557600080fd5b61215d612059565b8251815261216d60208401612083565b602082015261217e60408401612083565b604082015261218f60608401612083565b60608201526080830151828111156121a657600080fd5b6121b28782860161208e565b60808301525060a0830151828111156121ca57600080fd5b6121d68782860161208e565b60a08301525060c0830151828111156121ee57600080fd5b6121fa8782860161208e565b60c08301525060e08301518281111561221257600080fd5b61221e8782860161208e565b60e083015250610100808401518381111561223857600080fd5b6122448882870161208e565b828401525050610120915081830151828201526101409150612267828401611f88565b82820152610160915061227b828401611eec565b82820152610180915061228f828401611eec565b91810191909152949350505050565b60208082526031908201527f4163636964656e74444170703a2068617368206d7573742062652036342068656040820152707820636861727320285348412d3235362960781b606082015260800190565b634e487b7160e01b600052603260045260246000fd5b60208082526028908201527f4163636964656e74444170703a2068617368206d757374206265206c6f7765726040820152670c6c2e6ca40d0caf60c31b606082015260800190565b60006001820161236d57634e487b7160e01b600052601160045260246000fd5b5060010190565b6001600160a01b0388168152608060208201819052600090612399908301888a611ffe565b82810360408401526123ac818789611ffe565b905082810360608401526123c1818587611ffe565b9a9950505050505050505050565b6000602082840312156123e157600080fd5b5051919050565b6060815260006123fc606083018789611ffe565b828103602084015261240f818688611ffe565b9150508260408301529695505050505050565b85815260606020820152600061243c606083018688611ffe565b828103604084015261244f818587611ffe565b98975050505050505050565b60408152600061246f604083018688611ffe565b8281036020840152612482818587611ffe565b97965050505050505056fea26469706673582212203a899015e9d3415c95c8d21fa3c59062aedf4c736c3e39e41d0570647c2759c764736f6c63430008140033",
  "linkReferences": {},
  "deployedLinkReferences": {}
}